{
  "_format": "hh-sol-artifact-1",
  "contractName": "BuyMeACoffee",
  "sourceName": "contracts/BuyMeACoffee.sol",
  "abi": [
    {
      "inputs": [],
      "stateMutability": "nonpayable",
      "type": "constructor"
    },
    {
      "anonymous": false,
      "inputs": [
        {
          "indexed": true,
          "internalType": "address",
          "name": "from",
          "type": "address"
        },
        {
          "indexed": false,
          "internalType": "uint256",
          "name": "timestamp",
          "type": "uint256"
        },
        {
          "indexed": false,
          "internalType": "string",
          "name": "name",
          "type": "string"
        },
        {
          "indexed": false,
          "internalType": "string",
          "name": "message",
          "type": "string"
        }
      ],
      "name": "NewMemo",
      "type": "event"
    },
    {
      "inputs": [
        {
          "internalType": "string",
          "name": "_name",
          "type": "string"
        },
        {
          "internalType": "string",
          "name": "_message",
          "type": "string"
        }
      ],
      "name": "buyCoffee",
      "outputs": [],
      "stateMutability": "payable",
      "type": "function"
    },
    {
      "inputs": [],
      "name": "getMemos",
      "outputs": [
        {
          "components": [
            {
              "internalType": "address",
              "name": "from",
              "type": "address"
            },
            {
              "internalType": "uint256",
              "name": "timestamp",
              "type": "uint256"
            },
            {
              "internalType": "string",
              "name": "name",
              "type": "string"
            },
            {
              "internalType": "string",
              "name": "message",
              "type": "string"
            }
          ],
          "internalType": "struct BuyMeACoffee.Memo[]",
          "name": "",
          "type": "tuple[]"
        }
      ],
      "stateMutability": "view",
      "type": "function"
    },
    {
      "inputs": [],
      "name": "payee",
      "outputs": [
        {
          "internalType": "address payable",
          "name": "",
          "type": "address"
        }
      ],
      "stateMutability": "view",
      "type": "function"
    },
    {
      "inputs": [
        {
          "internalType": "address",
          "name": "updated",
          "type": "address"
        }
      ],
      "name": "updateTheWithdrawalAddress",
      "outputs": [],
      "stateMutability": "nonpayable",
      "type": "function"
    },
    {
      "inputs": [],
      "name": "withdrawTips",
      "outputs": [],
      "stateMutability": "nonpayable",
      "type": "function"
    }
  ],
  "bytecode": "0x608060405234801561001057600080fd5b50336000806101000a81548173ffffffffffffffffffffffffffffffffffffffff021916908373ffffffffffffffffffffffffffffffffffffffff16021790555060008054906101000a900473ffffffffffffffffffffffffffffffffffffffff16600160006101000a81548173ffffffffffffffffffffffffffffffffffffffff021916908373ffffffffffffffffffffffffffffffffffffffff160217905550610d07806100c16000396000f3fe60806040526004361061004a5760003560e01c8063204206e11461004f5780633aaa74b21461006b578063865c517214610082578063ae90b213146100ad578063fb721223146100d8575b600080fd5b6100696004803603810190610064919061070f565b610101565b005b34801561007757600080fd5b50610080610289565b005b34801561008e57600080fd5b506100976102eb565b6040516100a4919061097d565b60405180910390f35b3480156100b957600080fd5b506100c26104ce565b6040516100cf9190610962565b60405180910390f35b3480156100e457600080fd5b506100ff60048036038101906100fa91906106e6565b6104f4565b005b60003411610144576040517f08c379a000000000000000000000000000000000000000000000000000000000815260040161013b9061099f565b60405180910390fd5b600260405180608001604052803373ffffffffffffffffffffffffffffffffffffffff16815260200142815260200184815260200183815250908060018154018082558091505060019003906000526020600020906004020160009091909190915060008201518160000160006101000a81548173ffffffffffffffffffffffffffffffffffffffff021916908373ffffffffffffffffffffffffffffffffffffffff1602179055506020820151816001015560408201518160020190805190602001906102139291906105c6565b5060608201518160030190805190602001906102309291906105c6565b5050503373ffffffffffffffffffffffffffffffffffffffff167fc56140e05f516509ae28110e0f72e17558a7561630dad2647c3ae87d986e365c42848460405161027d939291906109df565b60405180910390a25050565b600160009054906101000a900473ffffffffffffffffffffffffffffffffffffffff1673ffffffffffffffffffffffffffffffffffffffff166108fc479081150290604051600060405180830381858888f193505050506102e957600080fd5b565b60606002805480602002602001604051908101604052809291908181526020016000905b828210156104c557838290600052602060002090600402016040518060800160405290816000820160009054906101000a900473ffffffffffffffffffffffffffffffffffffffff1673ffffffffffffffffffffffffffffffffffffffff1673ffffffffffffffffffffffffffffffffffffffff168152602001600182015481526020016002820180546103a290610b70565b80601f01602080910402602001604051908101604052809291908181526020018280546103ce90610b70565b801561041b5780601f106103f05761010080835404028352916020019161041b565b820191906000526020600020905b8154815290600101906020018083116103fe57829003601f168201915b5050505050815260200160038201805461043490610b70565b80601f016020809104026020016040519081016040528092919081815260200182805461046090610b70565b80156104ad5780601f10610482576101008083540402835291602001916104ad565b820191906000526020600020905b81548152906001019060200180831161049057829003601f168201915b5050505050815250508152602001906001019061030f565b50505050905090565b600160009054906101000a900473ffffffffffffffffffffffffffffffffffffffff1681565b60008054906101000a900473ffffffffffffffffffffffffffffffffffffffff1673ffffffffffffffffffffffffffffffffffffffff163373ffffffffffffffffffffffffffffffffffffffff1614610582576040517f08c379a0000000000000000000000000000000000000000000000000000000008152600401610579906109bf565b60405180910390fd5b80600160006101000a81548173ffffffffffffffffffffffffffffffffffffffff021916908373ffffffffffffffffffffffffffffffffffffffff16021790555050565b8280546105d290610b70565b90600052602060002090601f0160209004810192826105f4576000855561063b565b82601f1061060d57805160ff191683800117855561063b565b8280016001018555821561063b579182015b8281111561063a57825182559160200191906001019061061f565b5b509050610648919061064c565b5090565b5b8082111561066557600081600090555060010161064d565b5090565b600061067c61067784610a49565b610a24565b90508281526020810184848401111561069457600080fd5b61069f848285610b2e565b509392505050565b6000813590506106b681610cba565b92915050565b600082601f8301126106cd57600080fd5b81356106dd848260208601610669565b91505092915050565b6000602082840312156106f857600080fd5b6000610706848285016106a7565b91505092915050565b6000806040838503121561072257600080fd5b600083013567ffffffffffffffff81111561073c57600080fd5b610748858286016106bc565b925050602083013567ffffffffffffffff81111561076557600080fd5b610771858286016106bc565b9150509250929050565b600061078783836108da565b905092915050565b61079881610af2565b82525050565b6107a781610ae0565b82525050565b60006107b882610a8a565b6107c28185610aad565b9350836020820285016107d485610a7a565b8060005b8581101561081057848403895281516107f1858261077b565b94506107fc83610aa0565b925060208a019950506001810190506107d8565b50829750879550505050505092915050565b600061082d82610a95565b6108378185610abe565b9350610847818560208601610b3d565b61085081610c31565b840191505092915050565b600061086682610a95565b6108708185610acf565b9350610880818560208601610b3d565b61088981610c31565b840191505092915050565b60006108a1601a83610acf565b91506108ac82610c42565b602082019050919050565b60006108c4602d83610acf565b91506108cf82610c6b565b604082019050919050565b60006080830160008301516108f2600086018261079e565b5060208301516109056020860182610944565b506040830151848203604086015261091d8282610822565b915050606083015184820360608601526109378282610822565b9150508091505092915050565b61094d81610b24565b82525050565b61095c81610b24565b82525050565b6000602082019050610977600083018461078f565b92915050565b6000602082019050818103600083015261099781846107ad565b905092915050565b600060208201905081810360008301526109b881610894565b9050919050565b600060208201905081810360008301526109d8816108b7565b9050919050565b60006060820190506109f46000830186610953565b8181036020830152610a06818561085b565b90508181036040830152610a1a818461085b565b9050949350505050565b6000610a2e610a3f565b9050610a3a8282610ba2565b919050565b6000604051905090565b600067ffffffffffffffff821115610a6457610a63610c02565b5b610a6d82610c31565b9050602081019050919050565b6000819050602082019050919050565b600081519050919050565b600081519050919050565b6000602082019050919050565b600082825260208201905092915050565b600082825260208201905092915050565b600082825260208201905092915050565b6000610aeb82610b04565b9050919050565b6000610afd82610b04565b9050919050565b600073ffffffffffffffffffffffffffffffffffffffff82169050919050565b6000819050919050565b82818337600083830152505050565b60005b83811015610b5b578082015181840152602081019050610b40565b83811115610b6a576000848401525b50505050565b60006002820490506001821680610b8857607f821691505b60208210811415610b9c57610b9b610bd3565b5b50919050565b610bab82610c31565b810181811067ffffffffffffffff82111715610bca57610bc9610c02565b5b80604052505050565b7f4e487b7100000000000000000000000000000000000000000000000000000000600052602260045260246000fd5b7f4e487b7100000000000000000000000000000000000000000000000000000000600052604160045260246000fd5b6000601f19601f8301169050919050565b7f63616e27742062757920636f6666656520666f72206672656521000000000000600082015250565b7f6f6e6c7920746865206f776e65722063616e206368616e67652074686520706160008201527f796f757420616464726573732100000000000000000000000000000000000000602082015250565b610cc381610ae0565b8114610cce57600080fd5b5056fea2646970667358221220f6816df460823dfbc527a4b1378562d23c2874181c07daf6274ae0de12d6036e64736f6c63430008040033",
  "linkReferences": {},
  "deployedLinkReferences": {}
}